:020000040000FA
:100000000C947E050C94A6050C94A6050C945A1E1F
:100010000C945A1E0C945A1E0C94A6050C94A6051A
:100020000C94A6050C94A6050C94A6050C94A605A4
:100030000C94A6050C94A6050C94A6050C94A60594
:100040000C94B81D0C94A6050C94281E0C94021E4A
:100050000C94A6050C94A6050C94A6050C94A60574
:100060000C94D21E0C94A6054865616C74683A2005
:10007000004C6576656C3A20004865616C74683A9E
:1000800020004C6576656C3A200053544152540070
:1000900000000000003E5B4F5B3E3E6B4F6B3E1C22
:1000A0003E7C3E1C183C7E3C181C577D571C1C5E39
:1000B0007F5E1C00183C1800FFE7C3E7FF00182410
:1000C0001800FFE7DBE7FF30483A060E26297929BA
:1000D00026407F050507407F05253F5A3CE73C5AEF
:1000E0007F3E1C1C08081C1C3E7F14227F22145FCC
:1000F0005F005F5F06097F017F006689956A606027
:1001000060606094A2FFA29408047E040810207E20
:10011000201008082A1C08081C2A08081E101010A5
:10012000100C1E0C1E0C30383E3830060E3E0E06EB
:10013000000000000000005F00000007000700143E
:100140007F147F14242A7F2A1223130864623649FD
:100150005620500008070300001C224100004122E5
:100160001C002A1C7F1C2A08083E080800807030EA
:100170000008080808080000606000201008040259
:100180003E5149453E00427F40007249494946215F
:1001900041494D331814127F1027454545393C4AD3
:1001A00049493141211109073649494936464949EA
:1001B000291E000014000000403400000008142232
:1001C00041141414141400412214080201590906A0
:1001D0003E415D594E7C1211127C7F494949363EA1
:1001E000414141227F4141413E7F494949417F0987
:1001F0000909013E414151737F0808087F00417F92
:1002000041002040413F017F081422417F4040408F
:10021000407F021C027F7F0408107F3E4141413E27
:100220007F090909063E4151215E7F0919294626A9
:100230004949493203017F01033F4040403F1F20AD
:1002400040201F3F4038403F631408146303047884
:1002500004036159494D43007F41414102040810A4
:1002600020004141417F04020102044040404040DF
:10027000000307080020545478407F28444438384D
:1002800044444428384444287F38545454180008BF
:100290007E090218A4A49C787F0804047800447D99
:1002A00040002040403D007F1028440000417F4036
:1002B000007C047804787C0804047838444444388A
:1002C000FC1824241818242418FC7C08040408486A
:1002D0005454542404043F44243C4040207C1C20BB
:1002E00040201C3C4030403C44281028444C909016
:1002F000907C4464544C4400083641000000770070
:1003000000004136080002010204023C2623263C7C
:100310001EA1A161123A4040207A38545455592107
:1003200055557941225454784221555478402054EF
:100330005579400C1E52721239555555593954543D
:10034000545939555454580000457C410002457DAC
:10035000420001457C407D1211127DF0282528F0D5
:100360007C545545002054547C547C0A097F493202
:10037000494949323A4444443A324A4848303A4179
:1003800041217A3A42402078009DA0A07D3D424222
:10039000423D3D4040403D3C24FF2424487E4943AB
:1003A000662B2FFC2F2BFF0929F620C0887E09031E
:1003B00020545479410000447D413048484A323845
:1003C0004040227A007A0A0A727D0D19317D262971
:1003D000292F28262929292630484D402038080869
:1003E000080808080808382F10C8ACBA2F1028349D
:1003F000FA00007B000008142A142222142A140890
:100400005500550055AA55AA55AAFF55FF55FF009E
:100410000000FF00101010FF00141414FF00101053
:10042000FF00FF1010F010F0141414FC001414F767
:1004300000FF0000FF00FF1414F404FC1414171054
:100440001F10101F101F1414141F00101010F000A4
:100450000000001F101010101F10101010F01000DE
:100460000000FF101010101010101010FF100000EE
:1004700000FF140000FF00FF00001F10170000FC29
:1004800004F414141710171414F404F40000FF00FB
:10049000F714141414141414F700F7141414171484
:1004A00010101F101F141414F4141010F010F0008A
:1004B000001F101F0000001F14000000FC140000AB
:1004C000F010F01010FF10FF141414FF141010108F
:1004D0001F00000000F010FFFFFFFFFFF0F0F0F042
:1004E000F0FFFFFF0000000000FFFF0F0F0F0F0FD6
:1004F0003844443844FC4A4A4A347E020206060222
:100500007E027E0263554941633844443C04407E88
:10051000201E2006027E020299A5E7A5991C2A4901
:100520002A1C4C7201724C304A4D4D30304878488C
:1005300030BC625A463D3E494949007E0101017E78
:100540002A2A2A2A2A44445F444440514A444040CB
:10055000444A51400000FF0103E080FF000008080A
:100560006B6B083612362436060F090F060000188A
:10057000180000001010003040FF0101001F0101B1
:100580001E00191D1712003C3C3C3C0000000000FE
:10059000000103070F1F3F7F0080C0E0F0F8FCFE62
:1005A000DB40A4A62EAF2000A1C8D300408DAED55D
:1005B00080A80000600000000000000000000000B3
:1005C000000000E00000000000000000000000004B
:1005D0000001E0000000000000000000000000003A
:1005E00001F0000000000000000000000000000317
:1005F000F00000000000000000000000000007F014
:100600000000000000000000000000000007F800EB
:100610000000000000000000000000000FF80000D3
:100620000003C0007E000001E0007F0FF800000022
:1006300003C000FE000001E000FFEFF8000000032F
:10064000C000FE000001E000FFFFF800000003C052
:1006500000F00000000F007FFE7FC0000003C0001C
:10066000F00000000F003FFE7FF83FF1FBCFFCFEE3
:10067000F3BC3DEFE01FFE7FFF7FFBFFDFFEFEFFD1
:10068000BC3DEFE01FC6FFFF7FFBFFDFFEFEFFBCB0
:100690003DEFE00FE3C7FE787BC3DE1EF0FFBC3DFD
:1006A000EF0007FF87FC787BC3DE1EF0F83C3DEFD0
:1006B0000001FFFFF0007BC3C01EF0F03C3DEF00E7
:1006C00001F37FE03FFBC3CFFEF0F03C3DEF0003C2
:1006D000E33F807FFBC3DFFEF0F03C3DEF0007E728
:1006E0003C00787BC3DE1EF0F03C3DEF0007FFBE10
:1006F00000787BC3DE1EF0F03C3DEF0007FFFE00FC
:10070000787BC3DE1EF0F03C3DEF000FFFFE007F64
:10071000FBFFDFFEF0F03FFDEFE00FFFFF007FFB90
:10072000FFDFFEF0F03FFDEFE00FF9FF003E79F94B
:10073000CF9EF0F01F3DE7E01FF1FF00000000003A
:10074000000000000000001F80FF007FFFFFFFFF90
:10075000FFFFFFFFFFE01C007F007FFFFFFFFEB4F5
:100760006D888D18E000001F007FFFFFFFFE95AD34
:100770007DB577E000000F007FFFFFFFFEA5AD9D78
:100780008D19E0000006007FFFFFFFFEB5ADEDB55F
:100790007EE000000000000180000000000000007A
:1007A0000000038000000000000000000007C000FF
:1007B000000000000000000007C000000000000072
:1007C0000000000FC00000000000000000001FE05B
:1007D0000000000000000000001FE000000000001A
:1007E000000000003FE00000000000000000003FAB
:1007F000F00000000000000000007FF0000000009A
:100800000000001FF87FF0000000000000003FFE25
:100810007FF0000000000000003FFF7FF0000000BC
:10082000000000001FFFFBE0000000000000000FC0
:10083000FFF9FFC00000000000000FFFF9FFF80003
:10084000000000000007FFF1FFFF000000000000B3
:1008500003FC73FFFF80000000000001FE3FFFFF6C
:1008600080000000000000FF1E0FFF0000000000DD
:1008700000007FFE1FFC000000000000003FFFFFA3
:10088000F8000000000000000FDFFFE000000000A3
:100890000000001F19FFC0000000000000003F3CE6
:1008A000FF00000000000000007E7CF80000000057
:1008B000000000007FFE7C0000000000000000FF40
:1008C000FFFC0000000000000000FFFFFE00000031
:1008D0000000000000FFFFFE00000000000000011B
:1008E000FFEFFE0000000000000001FFCFFE00004F
:1008F000000000000003FF07FE00000000000000F1
:1009000003FC07FE0000000000000003F003FE00EF
:10091000000000000000018000FE00000000000058
:10092000000000007E000000000000000000003E0B
:10093000000000000000000000000C0000000000AB
:1009400000078000FC000003C0000000078001FCDD
:10095000000003C0000000078001FC000003C0008D
:100960000000078001E00000001E00000007800179
:10097000E00000001E007FE3F79FF9FDE7787BDFD2
:10098000C0FFF7FFBFFDFDFF787BDFC0FFF7FFBFB4
:10099000FDFDFF787BDFC0F0F787BC3DE1FF787B92
:1009A000DE00F0F787BC3DE1F0787BDE0000F787E2
:1009B000803DE1E0787BDE007FF7879FFDE1E07816
:1009C0007BDE00FFF787BFFDE1E0787BDE00F0F71C
:1009D00087BC3DE1E0787BDE00F0F787BC3DE1E0DD
:1009E000787BDE00F0F787BC3DE1E0787BDE00FF3E
:1009F000F7FFBFFDE1E07FFBDFC0FFF7FFBFFDE1D9
:100A0000E07FFBDFC07CF3F39F3DE1E03E7BCFC0A6
:100A10000000000000000000000000FFFFFFFFFFDB
:100A2000FFFFFFFFFFC0FFFFFFFFFD68DB111A3173
:100A3000C0FFFFFFFFFD2B5AFB6AEFC0FFFFFFFF68
:100A4000FD4B5B3B1A33C0FFFFFFFFFD6B5BDB6AB7
:100A5000FDC05353443133303620616C6C6F636199
:100A600074696F6E206661696C6564004446506C01
:100A700061796572204D696E69206661696C656493
:100A80002100535441525421004649524542414CA1
:100A90004C21004D454E5500000000002400270069
:100AA0002A00000000080002010000030407000003
:100AB0000000000000002200FF21000000000023D1
:100AC000002600290000000000250028002B00045B
:100AD00004040404040404020202020202030303E5
:100AE00003030301020408102040800102040810DF
:100AF0002001020408102000F11FE12611241FBE6E
:100B0000CFEFD8E0DEBFCDBF11E0A0E0B1E0EAE07A
:100B1000F3E502C005900D92A839B107D9F725E099
:100B2000A8E9B1E001C01D92AE3CB207E1F715E0C3
:100B3000CDE7D5E004C02197FE010E942628CC37DE
:100B4000D107C9F70E9436210C9478290C94000033
:100B50000895833081F028F4813099F08230A9F033
:100B600008958730A9F08830C9F08430B1F48091BD
:100B700080008F7D03C0809180008F7780938000FC
:100B8000089584B58F7784BD089584B58F7DFBCF9C
:100B90008091B0008F778093B00008958091B0006D
:100BA0008F7DF9CFCF93DF93282F30E0F901EE55F9
:100BB000F54F8491F901ED51F54FD491F901E153CD
:100BC000F54FC491CC23A1F081110E94A905EC2F0F
:100BD000F0E0EE0FFF1FE554F54FA591B491EC91B5
:100BE000ED2381E090E009F480E0DF91CF9108955A
:100BF00080E090E0FACF1F93CF93DF93282F30E06F
:100C0000F901EE55F54F8491F901ED51F54FD4916D
:100C1000F901E153F54FC491CC23A9F0162F8111AE
:100C20000E94A905EC2FF0E0EE0FFF1FEB53F54FEC
:100C3000A591B4918FB7F894EC91111108C0D0959B
:100C4000DE23DC938FBFDF91CF911F910895DE2BC0
:100C5000F8CFCF93DF9390E0FC01ED51F54F249155
:100C60008153954FFC0184918823D1F090E0880F47
:100C7000991FFC01E856F54FA591B491FC01EB5387
:100C8000F54FC591D49161110EC09FB7F8948C9126
:100C9000E22FE0958E238C932881E223E8839FBF87
:100CA000DF91CF9108958FB7F894EC91E22BEC93FC
:100CB0008FBFF6CF3FB7F8948091C7029091C802DA
:100CC000A091C902B091CA0226B5A89B05C02F3FCA
:100CD00019F00196A11DB11D3FBFBA2FA92F982F62
:100CE0008827BC01CD01620F711D811D911D42E05D
:100CF000660F771F881F991F4A95D1F708958F9225
:100D00009F92AF92BF92CF92DF92EF92FF926B01D0
:100D10007C010E945A064B015C01C114D104E1041C
:100D2000F104B9F00E945A06681979098A099B09E9
:100D3000683E73408105910580F321E0C21AD10815
:100D4000E108F10888EE880E83E0981EA11CB11C12
:100D5000E4CFFF90EF90DF90CF90BF90AF909F9047
:100D60008F9008952FB7F8946091C3027091C402D8
:100D70008091C5029091C6022FBF0895CF92DF9255
:100D8000EF92FF920F931F93CF93DF93F09038056C
:100D900080913B0590913C05A0913D05B0913E05A9
:100DA000892B8A2B8B2BD9F00E945A06009197042D
:100DB000109198042091990430919A04601B710B52
:100DC000820B930B00913B0510913C0520913D0552
:100DD00030913E056017710782079307C8F20E94A1
:100DE0005A066093970470939804809399049093A3
:100DF0009A04E0914305F0914405309759F04091F1
:100E00003F055091400560914105709142058F2D3D
:100E10000995F82EC0919504D091960405E814E048
:100E20006801209741F185E9C81684E0D80619F1D8
:100E3000E881F9810484F585E02DCE010995F6015C
:100E4000819391936F018091390590913A05843691
:100E5000910508F41C864D855E856A817B81E88159
:100E6000F9810280F381E02D2F2DCE0109950C80B0
:100E7000DD81C02DD6CFC0919504D09196042097E6
:100E800099F0F4E005391F0779F0F801619171914B
:100E90008F01E881F9810684F785E02DCE0109955F
:100EA0000C80DD81C02DEBCF809183049091840470
:100EB000EC012196D0938404C09383044997E4F114
:100EC0000E94B20600917F04109180042091810459
:100ED000309182046B017C01C01AD10AE20AF30A44
:100EE000A7019601211531054105510521F421E0A5
:100EF00030E040E050E088EE93E0C89FB001C99F29
:100F0000700DD89F700D1124072E000C880B990BC3
:100F10000E94E12730933A0520933905109284040A
:100F2000109283040E94B20660937F047093800441
:100F30008093810490938204DF91CF911F910F9150
:100F4000FF90EF90DF90CF900895CF92DF92EF92D5
:100F5000CF93DF936B01E82ED0E0C0E09E012450D8
:100F60003109EBECF2E090E080E082179307ECF0BF
:100F7000C817D907D4F0C082D182E2820196339695
:100F80008039910591F70E94BE0665E070E080E02F
:100F900090E00E947F062196C439D105F9F6DF91D1
:100FA000CF91EF90DF90CF9008951082118212823E
:100FB000E5CF2F923F924F925F926F927F928F92E6
:100FC0009F92AF92BF92CF92DF92EF92FF920F93D8
:100FD0001F93CF93DF936B017C010E94B2064B01FC
:100FE0005C01C114D104E104F10441F4C0904B054B
:100FF000D0904C05E0904D05F0904E05C1E046E0E4
:10100000242E53E0352E68E0462E72E0572EE7E09E
:101010006E2EFAE07F2E04E0D9E015E080914505C0
:1010200090914605DC01ED91FC910084F185E02D65
:101030000995892B09F4BAC060E070E0CB010E94E9
:101040007F06209163058091450590914605DC015E
:10105000ED91FC910284F385E02D21110BC00995DF
:1010600080934F058E37D1F6809163058F5F809313
:101070006305D4CF099590916305E92FF0E0EB5B10
:10108000FA4F8287923069F1993089F1913059F5A0
:101090008F3F49F110926305C09365051092680572
:1010A00010926705C093690510926A050E94B20606
:1010B000681979098A099B09C616D706E806F90650
:1010C00008F0C1C010926305109265051092680582
:1010D0001092670581E08093690510926A0580E0AF
:1010E0006AC08630B9F69F5F9093630597CF8F3EB5
:1010F00089F6E09152058091540590E040915505A4
:1011000050E06091560570E0762F662720915705D4
:10111000620F711D209151052E0F3327331FF0915F
:1011200053052F0F311D280F391F240F351FF09144
:1011300050052F0F311D3195219531096217730725
:1011400009F0A8CF10926305E13419F410926A05F2
:101150002DC0E0936605982F8827480F591F50939C
:10116000680540936705EA53E63108F063C0F0E094
:10117000E454F74F0C942628FF080909D208D20836
:101180001609EE0813091A0916091609160916098F
:1011900016091609160916091A0916091609160953
:1011A0001609160910936505C093690580916905B4
:1011B000882309F47BCFDF91CF911F910F91FF908E
:1011C000EF90DF90CF90BF90AF909F908F907F90E7
:1011D0006F905F904F903F902F90089540FF03C015
:1011E000D0936505E1CF41FF03C000936505DCCFD7
:1011F00043705527452BD1F270926505D5CF40FF3E
:1012000003C060926505D0CF41FFD0CF50926505F5
:10121000CBCF40FF03C040926505C6CF41FFC6CF8C
:1012200030926505C1CF20926505BECFBBE0B0937B
:101230006505BACFC09365051092680510926705E1
:10124000C093690583CF60E070E0CB010E947F0608
:10125000E5CE80935C05272F30E070935E056093A8
:101260005F0540915B0590915A05490F5527551F21
:10127000840F952F911D40915D05840F911D820F64
:10128000931F680F792F711D719561957109709386
:10129000600560936105442379F080916A05882395
:1012A00059F060E070E0CB010E947F0660E070E0E2
:1012B000CB010E94D907F1CF809145059091460559
:1012C000DC01ED91FC910280F381E02D4AE050E0D9
:1012D00069E575E009950E94B20660934705709331
:1012E00048058093490590934A0580915D0591E0FA
:1012F000811101C090E090936A05811106C06AE0F7
:1013000070E080E090E00C947F060895BC0183E0DB
:101310000C9429090895089580E991E00895EF92C9
:10132000FF920F931F93CF93DF938C017B01D0E04B
:10133000C0E0F701EC0FFD1F6491662361F0D80156
:10134000ED91FC910190F081E02DC8010995892B68
:1013500011F02196EECFCE01DF91CF911F910F9129
:10136000FF90EF900895AF92BF92CF92DF92EF92ED
:10137000FF920F931F93CF93DF936C017B018B013F
:10138000040F151FEB015E01AE18BF08C017D1078F
:1013900059F06991D601ED91FC910190F081E02D19
:1013A000C6010995892B79F7C501DF91CF911F916E
:1013B0000F91FF90EF90DF90CF90BF90AF90089586
:1013C000FC01538D448D252F30E0842F90E0821B4B
:1013D000930B541710F0CF96089501970895FC01D0
:1013E000918D828D981761F0A28DAE0FBF2FB11D28
:1013F0005D968C91928D9F5F9F73928F90E0089580
:101400008FEF9FEF0895FC01918D828D981731F039
:10141000828DE80FF11D858D90E008958FEF9FEF8D
:101420000895FC01918D228D892F90E0805C9F4F63
:10143000821B91098F73992708958BE994E00E948C
:10144000110A21E0892B09F420E0822F089580E021
:1014500090E0892B29F00E941D0A81110C94000054
:101460000895FC01A48DA80FB92FB11DA35ABF4F39
:101470002C91848D90E001968F739927848FA68993
:10148000B7892C93A089B1898C91837080648C93E7
:10149000938D848D981306C00288F389E02D808196
:1014A0008F7D80830895EF92FF920F931F93CF93C8
:1014B000DF93EC0181E0888F9B8D8C8D98131AC08F
:1014C000E889F989808185FF15C09FB7F894EE8976
:1014D000FF896083E889F9898081837080648083D3
:1014E0009FBF81E090E0DF91CF911F910F91FF901E
:1014F000EF900895F62E0B8D10E00F5F1F4F0F73C6
:101500001127E02E8C8D8E110CC00FB607FCFACF80
:10151000E889F989808185FFF5CFCE010E94310AE3
:10152000F1CFEB8DEC0FFD2FF11DE35AFF4FF08251
:101530009FB7F8940B8FEA89FB8980818062CFCFB7
:10154000CF93DF93EC01888D8823B9F0AA89BB89FA
:10155000E889F9898C9185FD03C0808186FD0DC0E5
:101560000FB607FCF7CF8C9185FFF2CF808185FF06
:10157000EDCFCE010E94310AE9CFDF91CF910895DE
:101580002091B1023091B2022817390771F490917D
:10159000AF028091B002981741F0E091AF02F0E005
:1015A000E25BFD4F808190E008958FEF9FEF0895FB
:1015B000EF92FF920F931F93CF93DF93DC015C9622
:1015C000ED90FC905D97E114F10479F481E090E0F6
:1015D00013969C938E93129790E080E0DF91CF91C9
:1015E0001F910F91FF90EF9008955196ED91FC910E
:1015F000529750968C915097982F90950FB75E9672
:101600002C915E97122F127021FD6095F894208125
:10161000112319F1282B2083E7012197F1F728E006
:10162000462F50E0308160FF1AC0382B3083E7012D
:101630002197F1F7BA0175956795215089F7112324
:1016400081F08081892380830FBF5C968D919C916E
:101650000197F1F781E090E0C1CF2923DCCF392356
:10166000E5CF9081892BEFCF2091B1023091B2026A
:101670002817390761F48091B0022091AF0290E001
:10168000805C9F4F821B91098F739927089590E08A
:1016900080E008952091B1023091B20228173907F5
:1016A000B9F49091AF028091B002981789F0E0915F
:1016B000AF02F0E0E25BFD4F80812091AF0230E0AD
:1016C0002F5F3F4F2F7333272093AF0290E0089591
:1016D0008FEF9FEF0895AF92BF92CF92DF92EF927C
:1016E000FF920F931F93CF93DF9300D01F92CDB73C
:1016F000DEB75A0119821A821B82882361F18B019D
:10170000E1E0F0E0E82EF12CD8012D918D012223AB
:10171000F1F06F01B1E0CB1AD108D501AC0DBD1DC0
:101720004C914423A1F030E02F5F3F4FD7010E943E
:101730000328A42FB0E011969B01AC010E94CE2794
:10174000A1E0B0E0AC0FBD1FAC0DBD1D8C93319678
:10175000E430F105C9F669817A818B810F900F9091
:101760000F90DF91CF911F910F91FF90EF90DF903D
:10177000CF90BF90AF900895EF92FF920F931F9379
:10178000CF93DF93EC01EC80FD806E157F050CF0AC
:1017900070C057FF04C0240F351F50E040E08E8119
:1017A0009F81FA01E20FF31F8E179F071CF49C0123
:1017B000241B350B121613060CF05BC0922F842FDE
:1017C0008695869586958E9DD0018F9DB00D1124AE
:1017D0006A0F7B1FAF8DB8A1A60FB71F477049F1E5
:1017E00088E0841B482F682F70E0FB01E856FA4F11
:1017F000E491281708F063C0621B71092FEF30E0F5
:1018000002C0359527956A95E2F7E223013011056C
:1018100039F0B0F10230110561F58C91E82702C072
:101820008C91E82BEC93941720F12C813D81A20F31
:10183000B31FE92FE41BE83078F00230110521F5E1
:101840008E2F9C9190959C932C813D81A20FB31F6C
:1018500088508830B0F7E770EE2359F0F0E0E05799
:10186000FA4FE49101301105F9F010F10230110541
:1018700019F1DF91CF911F910F91FF90EF90089593
:10188000E0958C91E823CECF81E00115110509F494
:1018900080E081959E2F8C932C813D81A20FB31FF8
:1018A00098509830C0F7D7CF8C91E82BEC93E1CFCC
:1018B000E0958C91E823FACF8C91E827F7CF01309F
:1018C000110509F4ADCFE0F20230110509F4A5CFFE
:1018D000AE0DBF1DAECF0F931F93CF93DF9377FF56
:1018E00004C0260F371F70E060E0DC011496CD9134
:1018F000DC91FB01E20FF31FCE17DF071CF49E0102
:10190000261B370B121613064CF5FA0157FD3796B6
:10191000A3E0F595E795AA95E1F7EC9FD001ED9F3F
:10192000B00DFC9FB00D11246A0F7B1FDC015F9688
:10193000ED91FC91E60FF71F4770552781E090E08D
:1019400001C0880F4A95EAF7482F0130110559F078
:10195000A8F02E0F3F1F02301105E1F0DF91CF916B
:101960001F910F9108952E0F3F1FE217F307B1F358
:101970008191DF011197842B8C93F7CF80952E0FE7
:101980003F1FE217F30751F39191DF01119798235D
:101990009C93F7CFE217F30709F38191DF011197C9
:1019A00084278C93F7CF0F931F93FA01DC0156968F
:1019B0004C9156974230E9F04330A1F1413061F546
:1019C00014964D915C91DA01AE1BBF0BFD01E21B39
:1019D000F30B77FD0BC0DC0116964D915C916417FB
:1019E000750724F4AB01BF010E946B0C1F910F918E
:1019F000089514964D915C91DA01A61BB70BBD01B9
:101A000061507109DC0116964D915C91DA01AE1BB3
:101A1000BF0BFD01E21BF30B77FDE8CFAF010E9486
:101A2000BC0BE4CF16964D915C91DA01A61BB70B67
:101A3000BD0161507109CDCF0F931F93FA01DC01F5
:101A400056964C9156974230A9F0433091F141306F
:101A500019F514964D915C91DA01AE1BBF0BFD0197
:101A60003197F7FD04C0AB01BF010E94BC0B1F9171
:101A70000F91089514964D915C91DA01A61BB70B56
:101A8000BD01DC0116964D915C91DA01AE1BBF0BD6
:101A9000FD013197621B730BF7FDE9CFDC01169650
:101AA0004D915C91E417F50714F7AF010E946B0CA0
:101AB000DECF16964D915C91DA01A61BB70BBD01E6
:101AC000621B730BCECFFC0177FD64C080859185CE
:101AD000681779070CF05EC057FD5CC0828593855E
:101AE000481759070CF056C086898230B1F0833010
:101AF00029F1813041F484819581841B950BAB01E0
:101B0000BC01615071092130310509F108F443C06D
:101B10002230310509F463C0089584819581DC0188
:101B2000A61BB70BBD016150710986819781DC014D
:101B3000A41BB50BAD0141505109E5CF86819781BA
:101B4000861B970BBA01AC0141505109DCCFCA0189
:101B500057FD0796A3E095958795AA95E1F7A4818F
:101B6000B5818A9F90018B9F300D9A9F300D112473
:101B7000620F731F078CF0A1E02DE60FF71F47706F
:101B8000552721E030E001C0220F4A95EAF7808115
:101B9000822B80830895CA0157FD079633E09595FF
:101BA00087953A95E1F7A481B5818A9F90018B9F33
:101BB000300D9A9F300D1124620F731F078CF0A116
:101BC000E02DE60FF71F4770552781E090E001C038
:101BD000880F4A95EAF7809590818923DACFCA0168
:101BE00057FD079623E0959587952A95E1F7A481FF
:101BF000B5818A9F90018B9F300D9A9F300D1124E3
:101C0000620F731F078CF0A1E02DE60FF71F4770DE
:101C1000552721E030E001C0220F4A95EAF7808184
:101C20008227B7CF20910402260F3327331F21329A
:101C30003105ECF420912802FC0190E080E0243092
:101C400069F082E00895A09104022191AC014C5109
:101C50005E4FA40FB52FB11D2C930196861798F3F4
:101C600080910402680F6093040280E0089581E08F
:101C700008951092280281E080932A02109229028E
:101C800061E082E10E94FB0561E083E10E94FB05C7
:101C9000E9EBF0E080818E7F808380818D7F80837F
:101CA00088E48093B80085E48093BC000895CF93C6
:101CB000DF9391E09093E3018823B9F0C091B800DD
:101CC000D091BA008091BC008A7B8093BC0060E018
:101CD00082E10E94FB0560E083E10E94FB050E9417
:101CE000390ED093BA00C093B800DF91CF91089518
:101CF000E091B9028091B802E81730F4F0E0E254C4
:101D0000FE4F808190E008958FEF9FEF08959091AE
:101D1000B9028091B8022FEF3FEF981748F4E92FEE
:101D2000F0E0E254FE4F208130E09F5F9093B902D3
:101D3000C90108958091B8029091B902891B990B4D
:101D40000895CF92DF92EF92FF920F931F93CF935C
:101D5000DF937C01CB018A0120917E04222389F04C
:101D6000EB016B01C40ED51ECC15DD0569F0699140
:101D7000D701ED91FC910190F081E02DC70109950B
:101D8000F3CF642F0E94120EC801DF91CF911F91F3
:101D90000F91FF90EF90DF90CF900895CF93DF9356
:101DA0001F92CDB7DEB7698320917E042223F9F01C
:101DB00020917B04203258F021E030E0FC01338395
:101DC000228390E080E00F90DF91CF910895809181
:101DD0007C04E82FF0E0E256FE4F998190838F5FFC
:101DE00080937C0480937B0481E090E0ECCF61E001
:101DF000CE0101960E94120EF7CFCF92DF92EF92A2
:101E0000FF920F931F93CF93DF93D0917B0481E0D8
:101E1000D13208F09CC0C0917D040E945A066B012B
:101E20007C018091280281116CC082E0809328029D
:101E300081E080932A028FEF8093270210924C0258
:101E4000D0934B02AEE9B1E0EBE2F2E080E0D813D0
:101E50008DC010924D0280914D02CC0FC82BC093C3
:101E60004D0280912902813009F084C0109229022C
:101E70000E945A066B017C0180914D028093BB0049
:101E80008091DF019091E001A091E101B091E20128
:101E9000892B8A2B8B2BA1F00E945A060091DF011F
:101EA0001091E0012091E1013091E2016C197D096E
:101EB0008E099F09061717072807390708F442C03B
:101EC0008091BC0083FDD8CF85EC8093BC000E943C
:101ED0005A066B017C0180912802823009F44CC0C3
:101EE000809127028F3F09F469C0809127028032D8
:101EF00009F466C080912702803309F463C084E04E
:101F000026C08091DF019091E001A091E101B091A4
:101F1000E201892B8A2B8B2B09F483CF0E945A066E
:101F20000091DF011091E0012091E1013091E20187
:101F30006C197D098E099F090617170728073907AD
:101F400008F06FCF8091DE010E94570E85E010925D
:101F50007C0410927B0410927E04DF91CF911F913C
:101F60000F91FF90EF90DF90CF9008959D91919306
:101F70008F5F6DCF85EEA9CF8091DF019091E00159
:101F8000A091E101B091E201892B8A2B8B2B09F4FE
:101F9000A2CF0E945A060091DF011091E00120912A
:101FA000E1013091E2016C197D098E099F09061744
:101FB00017072807390708F08ECFC4CF80E0C7CFB6
:101FC00082E0C5CF83E0C3CF08958EBD00000DB47D
:101FD00007FEFDCF8EB50895EF92FF920F931F93EA
:101FE000CF93DF937C01C62F8091A7059091A80520
:101FF000009709F459C02091AB0531E030937E047D
:1020000020937D0410927C0410927B04DC01ED91FE
:10201000FC910190F081E02D60E009958701EE24AC
:10202000E394F12CD1E0C1508091A7059091A805CF
:10203000CF3F91F1B0E2EB16F104D8F00E94FD0E13
:102040008091A7059091A8052091AB05D0937E04BF
:1020500020937D0410927C0410927B04DC01ED91AE
:10206000FC910190F081E02D60E00995EE24E3946D
:10207000F12C8091A7059091A805F8016491DC01ED
:10208000ED91FC910190F081E02D0995BFEFEB1AE5
:10209000FB0A0F5F1F4FC7CFDF91CF911F910F91A9
:1020A000FF90EF900C94FD0EE091B705F091B8050C
:1020B00090818091BD058095892380838701C150DF
:1020C00008F438C0F80184912091A5053091A60547
:1020D000232B29F00E94E50F0F5F1F4FF0CF28E060
:1020E00030E040E8E091B305F091B4059091BB0574
:1020F000582F5423D9F05081952B9083E091B5054A
:10210000F091B60590815091BC05952B9083E0919C
:10211000B505F091B60550819091BC059095952339
:102120009083469521503109E9F6D6CF508190959C
:102130009523E3CFDF91CF911F910F91FF90EF9007
:1021400008951F93CF93DF93EC018D8D9E8D0097A3
:1021500021F1162F29A131E030937E0420937D04D4
:1021600010927C0410927B04DC01ED91FC910190B3
:10217000F081E02D60E009958D8D9E8DDC01ED9163
:10218000FC910190F081E02D612F09958D8D9E8D40
:10219000DF91CF911F910C94FD0EADA5BEA59C9132
:1021A0008BA9809589238C938B8D9C8D892B31F005
:1021B000862FDF91CF911F910C94E50F28E030E03E
:1021C00080E8A9A5BAA599A9462F4823C1F04C914A
:1021D000942B9C93ABA5BCA59C914AA9942B9C9352
:1021E000ABA5BCA54C919AA9909594239C938695F8
:1021F0002150310931F7DF91CF911F9108954C9112
:1022000090959423E6CF8CBD9DBD0895DF92EF920B
:10221000FF920F931F93CF93DF938091A705909127
:10222000A805892B09F498C02091BF053091C005FD
:102230004091C1055091C20560E074E284EF90E0E6
:102240000E94E127205131094109510956954795CE
:10225000379527952093B80065E086EB9AE00E94B9
:10226000EC0F60918E0561508AE895E00E94A11004
:102270002091900530919105C901079697FD079629
:1022800033E0959587953A95E1F720918E05309149
:102290008F05829F8001839F100D929F100D112446
:1022A000C091A905D091AA058091A7059091A80594
:1022B0000C0F1D1F009709F48FC02091AB0531E072
:1022C00030937E0420937D0410927C0410927B0452
:1022D000DC01ED91FC910190F081E02D60E4099525
:1022E000EE24E394F12CDD24D3948091A705909102
:1022F000A8050C171D0709F446C0B0E2EB16F1045F
:10230000D8F00E94FD0E8091A7059091A80520911C
:10231000AB05D0927E0420937D0410927C04109231
:102320007B04DC01ED91FC910190F081E02D60E4F3
:102330000995EE24E394F12C8091A7059091A805CE
:102340006991DC01ED91FC910190F081E02D0995FE
:10235000BFEFEB1AFB0AC9CF8091A5059091A605A6
:10236000892B31F08091C8059091C9050E94031115
:10237000E091B905F091BA0590818091BE058095F4
:102380008923808369CF0E94FD0E8091A7059091DB
:10239000A805892B09F461C02091C3053091C405BB
:1023A0004091C5055091C60560E074E284EF90E06D
:1023B0000E94E1272051310941095109569547955D
:1023C000379527952093B800DF91CF911F910F91FA
:1023D000FF90EF90DF900895E091B705F091B80578
:1023E00080819091BD05892B80830C171D0769F2B0
:1023F00089912091A5053091A605232B19F00E9403
:10240000E50FF3CF28E030E040E8E091B305F0912C
:10241000B4059091BB05582F5423D9F05081952BCA
:102420009083E091B505F091B60590815091BC057F
:10243000952B9083E091B505F091B6055081909170
:10244000BC05909595239083469521503109E9F676
:10245000CCCF508190959523E3CFE091B905F091D1
:10246000BA0580819091BE05892B8083ADCF1F93E3
:10247000CF93DF93EC01162F8D8D9E8D892BB1F1BB
:102480002DA93EA94FA958AD60E074E284EF90E019
:102490000E94E1272051310941095109569547957C
:1024A000379527952093B80066EA111167EACE01A7
:1024B0000E94A1108D8D9E8D892B41F129AD3AADE1
:1024C0004BAD5CAD60E074E284EF90E00E94E127E8
:1024D000205131094109510956954795379527955E
:1024E0002093B800DF91CF911F9108958B8D9C8D23
:1024F000892B21F08EAD9FAD0E940311EFA5F8A9A5
:1025000090818CA9809589238083CECFEFA5F8A9EF
:1025100080819CA9892B8083E5CF0895FC0163709D
:10252000668B8481958126813781613039F06330F3
:1025300029F0918780873387228708953187208704
:102540009387828708952F923F924F925F926F9266
:102550007F928F929F92AF92BF92CF92DF92EF9233
:10256000FF920F931F93CF93DF93CDB7DEB76A9798
:102570000FB6F894DEBF0FBECDBF9A8F898F7A83D6
:1025800069834A01D22E18870F833701BC2CDC01E6
:1025900059962D913C915A972115310509F015C195
:1025A00018968D919C911997681779070CF0D7C1EF
:1025B0001A968D919C91481759070CF0D0C14C2C5C
:1025C000512CB6E0CB9E600D711D11247C876B876A
:1025D000161617060CF0C3C1EA2DF0E0FA87E9875A
:1025E00093E0EE0FFF1F9A95E1F7F88BEF87CF018D
:1025F000840F951F181619060CF0B1C1A98DBA8D5C
:1026000058968C91811104C0BFEABD1508F4D3948B
:10261000A98DBA8DED91FC9111970284F385E02D7F
:10262000CD010995B5E0DB9EC0011124E981FA8155
:10263000FC83EB83312C212C9C0120573F4F388F9A
:102640002F8B4A2D50E05E8B4D8BEF89F88DE20D7C
:10265000F31D44919E828D82D12CC12C69817A8197
:10266000620D731D7A8B698B842F90E09C8B8B8B12
:10267000E98DFA8DA081B18140FF82C0F1E0BF12E7
:102680006FC0AF126DC01C96ED91FC912F81388503
:10269000A4014C0D5D1D69897A89898D9A8D0995F2
:1026A000EB89FC89F595E7954E2F5FEFC51AD50AA2
:1026B0006D817E818D899E89680F791F7E836D83F0
:1026C00098E0C916D10481F6AFEF2A1A3A0AEB81D5
:1026D000FC81E40DF51DFC83EB83F5E02F1631043E
:1026E00009F0B3CF2F81388526153705B9F0A98DAC
:1026F000BA8DED91FC91B1E0BB1257C0AB1255C041
:1027000069817A816B5F7F4F0088F189E02D8301B9
:1027100028E030E0A401898D9A8D0995A98DBA8DA4
:10272000ED91FC9111970688F789E02DCD016A960D
:102730000FB6F894DEBF0FBECDBFDF91CF911F91D2
:102740000F91FF90EF90DF90CF90BF90AF909F9050
:102750008F907F906F905F904F903F902F90099453
:102760001E96ED91FC91EF80F88409851A859201FF
:102770004D815E816B817C81898D9A8D099590CF89
:102780002F8138852615370509F48ACF31E0B31239
:1027900007C0A31205C01C96ED91FC91930178CF60
:1027A0001E96ED91FC917301E0CF6B857C856419D9
:1027B00075090684F785E02D73010F85188992014C
:1027C000A401898D9A8D0995A9CFF9013496949128
:1027D000329745915491D91AB7E0DB9E400D511DB7
:1027E0001124F901259134913C8B2B8BFA01259012
:1027F0003490FA013296749031963491398B329636
:1028000064903196449041E04C1518F04A1508F058
:102810007FC0662D062C000C770B7C836B83842D88
:10282000042C000C990B9E838D83A98DBA8DED919C
:10283000FC9111970284F385E02DCD010995512C6F
:10284000D12CC12CEA2DF0E0FA87E9872B2D30E05E
:102850003C872B87A401440D511D47FC5A95588F86
:102860004F8B69817A81660D711D67FC7A957E8731
:102870006D877989C71608F051CF2C2D30E04D8136
:102880005E81420F531FA985BA854A9FC0014B9FA5
:10289000900D5A9F900D1124FC01E80DF91DF88B45
:1028A000EF87852D612C4F89588D420F531F5E8B0A
:1028B0004D8B671408F050C044244394480E877031
:1028C00041F4C1010196EB89FC89E20DF31DD4901E
:1028D0001C01D7FE19C0A98DBA8DED91FC91662D12
:1028E00070E0B1E0BB1219C0AB1217C02D853E8558
:1028F000620F731F0484F585E02D2F8138854D8983
:102900005E89898D9A8D0995DD0C6394842DD1CFD4
:102910001E821D821C821B8288CF4B815C81640FCA
:10292000751FAB85BC856A9FC0016B9F900D7A9F18
:10293000900D112469817A81680F791F0684F785CB
:10294000E02DEF80F88409851A859D014F8558890F
:10295000898D9A8D0995D8CF570CC3948ACF6A96E2
:102960000FB6F894DEBF0FBECDBFDF91CF911F91A0
:102970000F91FF90EF90DF90CF90BF90AF909F901E
:102980008F907F906F905F904F903F902F90089521
:102990008F929F92AF92CF92EF92FF920F931F93DD
:1029A000CF93DF93EC01262F898D9A8D009709F044
:1029B00051C06A30D1F41D861C868D8948E0849F01
:1029C000900111248E859F85820F931F9F878E878C
:1029D00081E090E0DF91CF911F910F91FF90EF90F8
:1029E000CF90AF909F908F9008956D3089F3CC88F1
:1029F000AD888F898823C1F08C859D8536E0C39E84
:102A0000800D911D1124488559854817590764F494
:102A10004E855F851D861C8638E0A39EC00111246B
:102A2000840F951F9F878E87EA88FB8808891989FC
:102A30004E855F856C857D85CE010E94A3122C8911
:102A40008C859D8546E0249F800D911D11249D87D6
:102A50008C87BECF6A3069F41D861C86FC013896CF
:102A6000E4912D898E859F85E29F800D911D112413
:102A7000ADCF6D3009F4ACCFFC01349634916317BF
:102A800008F4A6CF3296E491E61708F4A1CFFC0132
:102A9000329685909490462F431B342F47E0349F05
:102AA000800C911C1124F401329634913196E491FA
:102AB0003323A9F1EE2399F1CC88F4013596E49102
:102AC000AD884F89442301F10E2E000CFF0BE30F5C
:102AD000F11DCE9EA001CF9E500D11246C857D85E9
:102AE000460F571F68857985641775076CF44E8506
:102AF0005F851D861C86FC013896E491AE9E400DD4
:102B0000511D11245F874E87EA88FB88088919893F
:102B10004E855F856C857D85CE010E94A312F401F0
:102B20003496E4912C898C859D85E29F800D911DC2
:102B300011248DCF6F927F928F929F92AF92BF920E
:102B4000CF92DF92EF92FF920F931F93CF93DF9379
:102B5000EC016B015A0139014801E881F9810284D5
:102B6000F385E02D0995E881F9810288F389E02D4C
:102B700087019301A501B601CE010995A501480D74
:102B8000591D41505109E881F9810288F389E02DEE
:102B90009301B601CE010995E881F9810088F18998
:102BA000E02D9401A501B601CE010995C60CD71CF4
:102BB000B60161507109E881F9810088F189E02D41
:102BC0009401A501CE010995E881F9810688F7896C
:102BD000E02DCE01DF91CF911F910F91FF90EF90EB
:102BE000DF90CF90BF90AF909F908F907F906F902D
:102BF00009946F927F928F929F92AF92BF92CF92E1
:102C0000DF92EF92FF920F931F93CF93DF935C01BC
:102C1000EB016A01490138018701DC01ED91FC916A
:102C20006217730719F5641675062CF0962D872D1B
:102C30003A01C92ED82E9601261937092F5F3F4F2A
:102C4000048CF58DE02DA301BE01C5010995DF912E
:102C5000CF911F910F91FF90EF90DF90CF90BF9099
:102C6000AF909F908F907F906F9008954615570575
:102C700091F42617370724F0892D4B01C22FD82F46
:102C80009E01281939092F5F3F4F068CF78DE02DE3
:102C9000A601B401DACF0284F385E02D0995D501B0
:102CA000ED91FC910488F589E02D83019401A60142
:102CB000BE01C5010995D501ED91FC910688F78902
:102CC000E02DC501DF91CF911F910F91FF90EF9003
:102CD000DF90CF90BF90AF909F908F907F906F903C
:102CE0000994EF92FF920F931F93DC011A960D91B6
:102CF0001C911B9718962D913C911997ED91FC9181
:102D000000A0F1A1E02D7B0150E040E070E060E028
:102D100009951F910F91FF90EF9008954F925F9248
:102D20006F927F928F929F92AF92BF92CF92DF92DB
:102D3000EF92FF920F931F93CF93DF936C012B01C0
:102D40005A0139014801DC01ED91FC910284F385BF
:102D5000E02D0995E201640C751CD601ED91FC9102
:102D6000C615D7055CF40088F189E02D8701940130
:102D7000A501BE01C60109952196EFCF0688F78906
:102D8000E02DC601DF91CF911F910F91FF90EF9041
:102D9000DF90CF90BF90AF909F908F907F906F907B
:102DA0005F904F9009948F929F92AF92BF92CF9273
:102DB000DF92EF92FF920F931F93CF93DF93EC017B
:102DC0005B014A016901E881F9810284F385E02D04
:102DD000099595012C0D3D1D21503109E881F9819E
:102DE0000488F589E02D78018401A401B501CE01A4
:102DF0000995E881F9810688F789E02DCE01DF91F8
:102E0000CF911F910F91FF90EF90DF90CF90BF90E7
:102E1000AF909F908F9009948F929F92AF92BF92A4
:102E2000CF92DF92EF92FF920F931F93CF93DF9396
:102E3000EC015B014A0169017801E881F9810284B2
:102E4000F385E02D0995C80CD91C860101501109A4
:102E5000E881F9810488F589E02D9501A401B50187
:102E6000CE010995E881F9810688F789E02DCE0128
:102E7000DF91CF911F910F91FF90EF90DF90CF9056
:102E8000BF90AF909F908F900994EF92FF920F9315
:102E90001F93DC01ED91FC9100A0F1A1E02D0995BB
:102EA0001F910F91FF90EF9008950F931F93DC01F6
:102EB000ED91FC91068CF78DE02D09951F910F91F6
:102EC00008950F931F93DC01ED91FC91048CF58D17
:102ED000E02D09951F910F910895DC01ED91FC9172
:102EE0000084F185E02D09943F924F925F926F929A
:102EF0007F928F929F92AF92BF92CF92DF92EF928A
:102F0000FF920F931F93CF93DF935C017B014A01E4
:102F10006901390187E0680E711C93E0759467942C
:102F20009A95E1F72B01400E511E10E000E0312C84
:102F3000D0E0C0E0CE0187709927330C892B59F47B
:102F4000FE0183E0F595E7958A95E1F7E00FF11F23
:102F5000E80DF91D349037FE0AC021E030E0A701EA
:102F6000B5016C0F7D1F8AE895E00E946D172196D0
:102F7000CC16DD06F9F68FEFE81AF80A060D171DD4
:102F8000E414F504A9F6DF91CF911F910F91FF9002
:102F9000EF90DF90CF90BF90AF909F908F907F90F9
:102FA0006F905F904F903F9008952F923F924F9275
:102FB0005F926F927F928F929F92AF92BF92CF92C9
:102FC000DF92EF92FF920F931F93CF93DF9300D086
:102FD00000D000D0CDB7DEB73C016A013E832D831F
:102FE000FC82EB825801A41AB50AB7FE03C0B19463
:102FF000A194B1088D809E80861A970A97FE03C01F
:103000009194819491088A149B045CF0902F812FF5
:103010000D811E819D838E839C2D8D2D6B01692FCB
:10302000782F0C151D055CF09D818E817E836D834C
:10303000692F782F902F812F8601C92ED82E160147
:10304000201A310A2B012D813E81421A530A57FE64
:1030500003C0519441945108710137FE03C03FEF02
:10306000E31AF30AF594E7948D819E8186179707FA
:103070005CF5A1E0B0E0BA83A983C016D1064CF19B
:10308000D301ED91FC910484F585E02D2B813C81E9
:10309000A8016D817E818A149B041CF04D815E81A4
:1030A000B801C3010995E418F508F7FE0AC02D819F
:1030B0003E8189819A81280F391F3E832D83E20C3E
:1030C000F31C0F5F1F4FD9CF2FEF3FEF3A832983B8
:1030D000D4CF26960FB6F894DEBF0FBECDBFDF91DA
:1030E000CF911F910F91FF90EF90DF90CF90BF9005
:1030F000AF909F908F907F906F905F904F903F9098
:103100002F900895089590E080E008950F931F9305
:10311000CF93DF9320919D012F5F322F3770309333
:103120009D0120FF2BC020E831FD2064347009F0A0
:103130002062205FFC01EC01239600E011E067852E
:10314000662329F070E0C8010E9412286F5F618732
:10315000822F869F080E80E0811D1124811110C0EE
:103160001682662311F0615061873196EC17FD07D6
:1031700031F7DF91CF911F910F91089520E0D4CFC7
:1031800081508683EECF4F925F927F928F929F9273
:10319000AF92BF92CF92DF92EF92FF920F931F9365
:1031A000CF93DF932C01EB010E945A06F20125898F
:1031B0003689621B730B6A307105B0F3F8948A810B
:1031C0009B81181619060CF0CBC1E881F9810BB16F
:1031D00000647BB17F7B7BB9B9848E812B2D281B4A
:1031E000822F2E834C85042E000C550BAA81BB81A7
:1031F000EF84D888C988E394D394C3949F81388599
:103200009A848B84108120E0F32E622F322F30813C
:10321000112788943111380F08F43FEF8195889475
:10322000E0FC130F17958894E1FC130F1795889411
:10323000E2FC130F17958894E3FC130F17958894FD
:10324000E4FC130F17958894E5FC130F17958894E9
:10325000E6FC130F17958894E7FC130F17958894D5
:10326000232FE110212F8B0D122F002C0BB900C042
:1032700017FF7BB931812227889400C000C0002C41
:103280007BB93111390F00C0002C0BB900C016FFFB
:103290007BB908F43FEF9195889400C000C0002CE2
:1032A0007BB9D0FC230F00C0002C0BB900C015FF68
:1032B0007BB927958894D1FC230F00C000C0002C57
:1032C0007BB92795889400C0002C0BB900C014FF6F
:1032D0007BB9D2FC230F2795889400C000C0002C36
:1032E0007BB9D3FC230F00C0002C0BB900C013FF27
:1032F0007BB927958894D4FC230F00C000C0002C14
:103300007BB92795889400C0002C0BB900C012FF30
:103310007BB9D5FC230F2795889400C000C0002CF2
:103320007BB9D6FC230F00C0002C0BB900C011FFE5
:103330007BB927958894D7FC230F00C000C0002CD0
:103340007BB92795889400C0002C0BB900C010FFF2
:103350007BB9132FD110122F990D00C000C0002C83
:103360007BB900C000C0002C0BB900C017FF7BB9AF
:1033700032812227889400C000C0002C7BB9311113
:103380003F0D00C0002C0BB900C016FF7BB908F43C
:103390003FEFE40FF51F00C000C0002C7BB9C0FC5C
:1033A000230F00C0002C0BB900C015FF7BB9279577
:1033B0008894C1FC230F00C000C0002C7BB9279566
:1033C000889400C0002C0BB900C014FF7BB9C2FC6C
:1033D000230F2795889400C000C0002C7BB9C3FC44
:1033E000230F00C0002C0BB900C013FF7BB9279539
:1033F0008894C4FC230F00C000C0002C7BB9279523
:10340000889400C0002C0BB900C012FF7BB9C5FC2A
:10341000230F2795889400C000C0002C7BB9C6FC00
:10342000230F00C0002C0BB900C011FF7BB92795FA
:103430008894C7FC230F00C000C0002C7BB92795DF
:10344000889400C0002C0BB900C010FF7BB9132F6B
:10345000C110122FF19400C000C0002C7BB9F80CF1
:1034600000C000C00BB900C017FF7BB93081222714
:10347000889400C000C0002C7BB93111380F00C007
:10348000002C0BB900C016FF7BB908F43FEF819503
:10349000889400C000C0002C7BB9E0FC230F00C062
:1034A000002C0BB900C015FF7BB927958894E1FC6F
:1034B000230F00C000C0002C7BB92795889400C062
:1034C000002C0BB900C014FF7BB9E2FC230F279539
:1034D000889400C000C0002C7BB9E3FC230F00C01F
:1034E000002C0BB900C013FF7BB927958894E4FC2E
:1034F000230F00C000C0002C7BB92795889400C022
:10350000002C0BB900C012FF7BB9E5FC230F2795F7
:10351000889400C000C0002C7BB9E6FC230F00C0DB
:10352000002C0BB900C011FF7BB927958894E7FCEC
:10353000230F00C000C0002C7BB92795889400C0E1
:10354000002C0BB900C010FF7BB9132FE110122F14
:103550008B0D00C000C0002C7BB9119709F086CEFE
:10356000EA81FB812EE130E0DF010E942C2830E06F
:1035700020E0A901AAE9EA9F0E0E411DFA9F400D25
:10358000511D11244F0F511DDC01CB01840F951FDC
:10359000A11DB11D893E43E09407A105B10508F4C2
:1035A00034C0885E9340A109B10942E0B695A79561
:1035B000979587954A95D1F747E0849F080E211D7E
:1035C000949F200D311D1124290F311D60919C0104
:1035D00070E0860F971F820F931F4091C302509196
:1035E000C4026091C5027091C602292F3327420F91
:1035F000531F611D711D4093C3025093C402609319
:10360000C5027093C60280939C0178940E945A066A
:10361000F201768B658BDF91CF911F910F91FF9017
:10362000EF90DF90CF90BF90AF909F908F907F9062
:103630005F904F90089581E090E00895569A089524
:103640006F927F928F92CF92DF92EF92FF920F93C1
:103650001F93CF93DF93CDB7DEB762970FB6F89481
:10366000DEBF0FBECDBF8C016B017A01822FA80196
:10367000475F5F4FB8016A5F7F4F0E946B0B3B0152
:10368000882ED8011C962C91C701F7FE04C088270C
:1036900099278E199F09DA82C9829C838B839E8326
:1036A0008D83688A798A8A8A213049F5CE0101960C
:1036B0000E94861883E08D871F861E86F7FE02C053
:1036C0008DEF8D87D801ED91FC910288F389E02D73
:1036D000BE016F5F7F4FC801099562960FB6F894DF
:1036E000DEBF0FBECDBFDF91CF911F910F91FF9035
:1036F000EF90DF90CF908F907F906F9008951C8611
:103700001B861A86198618861F82D4CFCF92DF9225
:10371000EF92FF920F931F93CF93DF93CDB7DEB756
:1037200062970FB6F894DEBF0FBECDBF8C016B0160
:103730007A01822FA801475F5F4FB8016A5F7F4F10
:103740000E946B0B9B01482FD8011C968C91DA824A
:10375000C982FC82EB82FE82ED82288B398B4A8BF8
:10376000813009F5CE0101960E9486181D861F86BC
:103770001E86D801ED91FC910288F389E02DBE01EF
:103780006F5F7F4FC801099562960FB6F894DEBF50
:103790000FBECDBFDF91CF911F910F91FF90EF90A2
:1037A000DF90CF9008951C861B861A86198618868E
:1037B0001F82DCCF90E080E00895FC0164870895CB
:1037C000FC01848590E00895FC0185859685089527
:1037D0002091900530919105C901079697FD0796B4
:1037E00023E0959587952A95E1F720918E053091F4
:1037F0008F05829FA001839F500D929F500D112431
:1038000070E060E08091A9059091AA050C9471295F
:10381000FC0182819381009789F02585368577FDAB
:10382000B901261737070CF4B901AB01440F551F36
:10383000460F571F70E060E00C9471290895CF93F4
:10384000DF93C0919504D0919604209749F06FEFD3
:103850007FEFCE010E94081C0C80DD81C02DF5CFCA
:10386000DF91CF910895EBECF2E060837183828366
:10387000138214821582369694E0EB37F907A9F784
:103880000E94BE0664EF71E080E090E00E947F0637
:103890000E941F1C0C94BE060C94081C0E946C29EC
:1038A000FB0101900020E9F73197AF01461B570B50
:1038B000DC01ED91FC910280F381E02D09948F925F
:1038C0009F92AF92BF92CF92DF92EF92FF920F93AF
:1038D0001F93CF93DF93CDB7DEB7A1970FB6F894C0
:1038E000DEBF0FBECDBF6C01990FEE08FF08F7FEDB
:1038F0004BC06DE28AE895E00E94C8148C01222733
:103900003327A9012C193D094E095F0919A2CE01DF
:1039100081967C019AE0892E912CA12CB12CCA01B0
:10392000B901A50194010E94E127605DF70162934E
:103930007F01211531054105510589F790E080E0AF
:10394000309729F0BF018AE895E00E94501C080FCB
:10395000191F64E971E08AE895E00E94501C800F0D
:10396000911FA1960FB6F894DEBF0FBECDBFDF91B9
:10397000CF911F910F91FF90EF90DF90CF90BF906C
:10398000AF909F908F900895A701960119A28E0184
:103990000F5D1F4F8AE0C82ED12CE12CF12CCA01FB
:1039A000B901A70196010E94E127605DF8016293C9
:1039B0008F01211531054105510589F7309739F0FF
:1039C000BF018AE895E00E94501C8C01C2CF10E034
:1039D00000E0BFCF0F931F93CF93DF93EC010E94C2
:1039E0008F098C0164E971E0CE010E94501C800FA8
:1039F000911FDF91CF911F910F910895CF93DF9386
:103A00000E94E81B81E090E090939D0580939C05C7
:103A100090939B0580939A0580939E0580939F05C4
:103A20008091C0029091C102019709F044C088E2E0
:103A300090E0909397058093960584E190E09093B1
:103A40009905809398056AE870E08AE895E00E94FD
:103A5000EA1CCEE1D0E0D0939705C093960583E2AF
:103A600090E0909399058093980562E870E08AE869
:103A700095E00E948F098091BE029091BF020E9442
:103A80005F1CD0939705C09396058DE290E09093CC
:103A900099058093980569E770E08AE895E00E94AF
:103AA0008F0980910001909101010E945F1CDF91BC
:103AB000CF910C940611CEE1D0E0D0939705C0933E
:103AC000960589E190E0909399058093980561E7C8
:103AD00070E08AE895E00E948F098091BE02909183
:103AE000BF020E945F1CD0939705C093960583E2A6
:103AF00090E0909399058093980568E670E0CDCFAB
:103B000085ED8093BC008091DF019091E001A09150
:103B1000E101B091E2010796A11DB11D23E0B69528
:103B2000A795979587952A95D1F72091BC0024FDFC
:103B300003C01092280208954091DF015091E001E6
:103B40006091E1017091E201452B462B472B69F30F
:103B50000097A105B10541F02AE22A95F1F700C0CE
:103B60000197A109B109E1CF8091DE010C94570EB4
:103B70001F920F920FB60F9211242F933F938F93A2
:103B80009F93AF93BF938091C3029091C402A09181
:103B9000C502B091C6023091C20223E0230F2D3737
:103BA00058F50196A11DB11D2093C2028093C30256
:103BB0009093C402A093C502B093C6028091C7023D
:103BC0009091C802A091C902B091CA020196A11DAC
:103BD000B11D8093C7029093C802A093C902B0930D
:103BE000CA02BF91AF919F918F913F912F910F90FA
:103BF0000FBE0F901F90189526E8230F0296A11D67
:103C0000B11DD2CF1F920F920FB60F9211242F9396
:103C10003F934F935F936F937F938F939F93AF9354
:103C2000BF93EF93FF938BE994E00E94310AFF91D9
:103C3000EF91BF91AF919F918F917F916F915F9124
:103C40004F913F912F910F900FBE0F901F9018959D
:103C50001F920F920FB60F9211242F938F939F9361
:103C6000EF93FF93E091AB04F091AC048081E0917D
:103C7000B104F091B20482FD1BC090818091B40424
:103C80008F5F8F732091B504821741F0E091B404E7
:103C9000F0E0E556FB4F958F8093B404FF91EF91D0
:103CA0009F918F912F910F900FBE0F901F9018959D
:103CB0008081F4CF1F920F920FB60F9211242F9391
:103CC0003F934F935F936F937F938F939F93AF93A4
:103CD000BF93EF93FF93E091B102F091B20230975E
:103CE00049F0A685B7858585968D91FF14C09C9176
:103CF0008923A1F4FF91EF91BF91AF919F918F9193
:103D00007F916F915F914F913F912F910F900FBED7
:103D10000F901F9018959C91892361F7A389B4890E
:103D20009C918589809589238C93868997890197B1
:103D3000F1F7608D718DA685B785558538E020E057
:103D4000CB010197F1F7822F90E095958795282F69
:103D50004C91452309F02068315091F7868D81FD03
:103D600020958091B00290E001968F739927309151
:103D7000AF02381799F0A091B002B0E0A25BBD4F3E
:103D80002C938093B002828D938D0197F1F7A389D4
:103D9000B4898C919589892B8C93ACCF868D816069
:103DA000868FF1CF1F920F920FB60F9211242F938F
:103DB0003F934F935F936F937F938F939F93AF93B3
:103DC000BF93EF93FF938091B900887F803609F409
:103DD0004AC0F0F5883209F4A7C018F5803109F41B
:103DE0009BC0B8F4882309F4F9C0883009F494C062
:103DF000FF91EF91BF91AF919F918F917F916F91C3
:103E00005F914F913F912F910F900FBE0F901F9098
:103E10001895883109F488C0803251F780932702C1
:103E200014C0803409F49DC040F48033B9F3883362
:103E3000F9F68093270285ECB0C0803509F485C07F
:103E4000883509F496C0883499F60E94801DD0CF39
:103E5000883909F48CC038F5883729F050F4883651
:103E600011F0803729F683E0809328021092260211
:103E700057C0883809F47BC0803919F0803809F0C0
:103E8000B7CF80912602803208F071C0E0912602FF
:103E900081E08E0F809326028091BB00F0E0EA5F04
:103EA000FD4F80833DC0803B39F0E0F4803A09F457
:103EB00079C0883A09F09CCF84E080932802109260
:103EC000050210920402E091B602F091B702099542
:103ED0008091040281110FC081E08093040210924E
:103EE000E40109C0803C09F4A6CF883C09F4A3CFC3
:103EF000883B09F07DCFE091050281E08E0F809331
:103F00000502F0E0EC51FE4F80818093BB00909160
:103F100005028091040229C080914D028093BB006C
:103F200085EC8093BC0064CF90914C0280914B0251
:103F3000981758F5E0914C0281E08E0F80934C0267
:103F4000F0E0E55DFD4F8081E9CFE0914C0281E03A
:103F50008E0F80934C028091BB00F0E0E55DFD4F39
:103F6000808390914C0280914B029817C8F285E8AB
:103F7000D8CFE0914C0281E08E0F80934C0280916B
:103F8000BB00F0E0E55DFD4F808380912A02811146
:103F90005CCF81E08093290284EA8093BC00109278
:103FA000280226CF85EC8093BC00109228028091D5
:103FB0002602803230F4E0912602F0E0EA5FFD4F05
:103FC00010826091260270E0E091B402F091B50297
:103FD00086E092E00995109226020ACF10922702FD
:103FE00034CF10929E0410929D0488EE93E0A0E0DE
:103FF000B0E080939F049093A004A093A104B09399
:10400000A20428E431E030939C0420939B0425EC27
:1040100030E03093A8042093A70424EC30E03093E0
:10402000AA042093A90420EC30E03093AC04209340
:10403000AB0421EC30E03093AE042093AD0422ECCD
:1040400030E03093B0042093AF0426EC30E030939E
:10405000B2042093B1041092B4041092B5041092EB
:10406000B6041092B7042FEF2093380510923A054A
:104070001092390510924405109243054FEF5FEFFF
:10408000BA0140933F0550934005609341057093FA
:10409000420510923B0510923C0510923D0510928E
:1040A0003E0510928D0510928C0540E850E050932B
:1040B0008F0540938E0520E430E0309391052093E6
:1040C0009005509393054093920530939505209366
:1040D00094051092A00510929705109296051092E3
:1040E00099051092980561E060939F0560939E0585
:1040F0002FEF3FEF30939D0520939C0530939B0558
:1041000020939A056093A1051092A2051092A40530
:104110001092A3052CE631E030938B0520938A059D
:104120001092A6051092A5051092A8051092A70559
:104130001092AA051092A9052BE02093AE052DE060
:104140002093AF0528E02093B0052AE02093B10525
:1041500029E02093B20520E52093C8051092C905F7
:1041600010926E0510926D0580936F059093700507
:10417000A0937105B09372058AE591E090936C0568
:1041800080936B0510928205109281051092840530
:10419000109283051092860510928505109288056D
:1041A00010928705809189058E7F8D7F8093890588
:1041B00086958170682783E00E94FB0561E083E0BB
:1041C0000E942906E6EEFAE0E491E0937B05E2ED39
:1041D000FAE0E491F0E0EE0FFF1FEB53F54F85910D
:1041E000949190937D0580937C0560E085E00E942A
:1041F00029068091890581FD04C061E085E00E9467
:10420000FB0585E080937705E8EEFAE0E491E09322
:104210007805E4EDFAE0E491F0E0EE0FFF1FE554DD
:10422000F54F8591949190937A058093790584EF69
:1042300091E0A0E0B0E080934B0590934C05A093F3
:104240004D05B0934E058AE0ECE0F1E0A9E5B5E05C
:1042500001900D928A95E1F71092630582E08093B8
:1042600064051092690510926A050895789484B5E2
:10427000826084BD84B5816084BD85B5826085BD62
:1042800085B5816085BD80916E00816080936E00F0
:1042900010928100809181008260809381008091E2
:1042A0008100816080938100809180008160809393
:1042B00080008091B10084608093B1008091B00053
:1042C00081608093B00080917A00846080937A004E
:1042D00080917A00826080937A0080917A00816078
:1042E00080937A0080917A00806880937A0010929F
:1042F000C10060E082E00E94290660E084E00E9444
:10430000290660E087E00E9429068091A7028111BA
:1043100055C010929302109292028FEF80939602F2
:1043200080939702809398028093990280939A02D7
:1043300080939B0281E080939C0210929E021092D7
:104340009D0280E797E19093A00280939F0283E013
:1043500090E09093A2028093A1021092A402109286
:10436000A30210929502109294028091950490916C
:104370009604892B31F480E992E09093960480931F
:104380009504E0918E02F0918F02309721F080E940
:1043900092E09583848380E992E090938F028093EA
:1043A0008E021092A6021092A50280E391E09093F3
:1043B00091028093900281E08093A702569A8BEC41
:1043C00092E0909393028093920280E990E0909320
:1043D0009E0280939D0280913B0590913C05A091A7
:1043E0003D05B0913E05843C29E09207A105B10549
:1043F00020F484EC99E0A0E0B0E080933B0590933A
:104400003C05A0933D05B0933E050E941F1C0E94F1
:10441000BE06E091AB04F091AC0482E08083E091B1
:10442000A704F091A8041082E091A904F091AA04D5
:104430008FEC80831092B304E091AF04F091B0044C
:1044400086E08083E091AD04F091AE0480818061CC
:104450008083E091AD04F091AE0480818860808318
:10446000E091AD04F091AE04808180688083E0919A
:10447000AD04F091AE0480818F7D8083109286051B
:104480001092850510928405109283051092820582
:10449000109281058DE991E09093880580938705BE
:1044A00090917705963108F047C02DEB30E03093BE
:1044B0008205209381052BE931E030938405209318
:1044C00083052CE231E03093860520938505209109
:1044D000680084E0983048F031E09E3008F430E025
:1044E00081E001C0880F3A95EAF7822B809368003B
:1044F0002DE630E0983050F02BE630E09E3030F082
:104500002CE630E0963110F030E020E030937F056B
:1045100020937E05292F30E0983008F065C081E0B7
:1045200001C0880F9A95EAF78093800580918705EE
:10453000909188050197F1F7809185059091860506
:10454000892B49F1E091B102F091B20245E0EB36DE
:10455000F40709F1309739F0A389B4899C918589D2
:10456000809589238C93809189058E7F809389051E
:104570001092B0021092AF028BE695E09093B202D7
:104580008093B102E0917E05F0917F05808190914A
:104590008005892B80838BE695E090934605809378
:1045A000450581E080935D0570E060E08CE00E944D
:1045B000290960ED77E080E090E00E94D90768EC7F
:1045C00070E080E090E00E947F0610926905809183
:1045D00065058430B1F08930A1F06CE67AE08BE9B2
:1045E00094E00E94EA1CFFCF9E3040F4285031092D
:1045F00081E001C0880F2A95EAF796CF2E50310945
:10460000F7CF84EF91E0A0E0B0E080934B0590936A
:104610004C05A0934D05B0934E056EE170E086E029
:104620000E9429098091A9059091AA05892B11F171
:104630000E94E81B209190053091910580918E0594
:1046400090918F05213231050CF03DC0B9016052C7
:10465000710977FF02C06F5F7F4F7595679583572C
:10466000910997FD019600E210E023E730E042EB6C
:1046700055E03CC02091900530919105C901079605
:1046800097FD0796B3E095958795BA95E1F7209148
:104690008E0530918F05AC01429FC001439F900D64
:1046A000529F900D11240E9447289093AA05809351
:1046B000A905892B09F0BCCF62E57AE08BE994E08B
:1046C0000E94EA1CFFCFB9016054710977FF02C054
:1046D0006F5F7F4F759567958255910997FD01969C
:1046E00000E410E022E530E042E957E09595879537
:1046F0000E94741782E08093AC058091A705909189
:10470000A805892B09F431C18091900590919105FC
:10471000809709F028C18CE38093AB051092B90211
:104720001092B80210927C0410927B040E94390E01
:104730008AE899E09093B7028093B6028BE899E0FB
:104740009093B5028093B4028091B20587FD1EC09C
:1047500061E00E94290661E08091B2050E94FB059C
:1047600061E070E080E090E00E947F0660E0809170
:10477000B2050E94FB056AE070E080E090E00E94D4
:104780007F0661E08091B2050E94FB058091A7053C
:104790009091A805892B09F4A7C12091BF053091FC
:1047A000C0054091C1055091C20560E074E284EFFC
:1047B00090E00E94E12720513109410951095695A5
:1047C0004795379527952093B80064E08EEA95E0E9
:1047D0000E94EC0F6091900561508AE895E00E947C
:1047E000A11064E08AEA95E00E94EC0F8091AC058C
:1047F00060E1813009F064E18AE895E00E94A1104F
:1048000064E086EA95E00E94EC0F8FE88093C7058C
:1048100080918E0590918F058038910509F07DC1BA
:1048200080919005909191058034910509F085C1A2
:104830008091AC05813009F06EC18FE98093C70586
:10484000C2E16AED8AE895E00E94A1106C2F8AE827
:1048500095E00E94A11061E88AE895E00E94A1100D
:104860006091C7058AE895E00E94A11069ED8AE889
:1048700095E00E94A1108091AC0562E2813009F0C0
:1048800061EF8AE895E00E94A11066E080EA95E079
:104890000E94EC0F8091A7059091A805892B09F43F
:1048A00050C12091C3053091C4054091C505509178
:1048B000C60560E074E284EF90E00E94E127205199
:1048C0003109410951095695479537952795209308
:1048D000B8000E94E81B0E94061181E090E09093CE
:1048E0009D0580939C0590939B0580939A0592E08B
:1048F000492E512C612C712C24E0222E312CC1E048
:10490000D0E034E1C32ED12C49E1E42EF12C53E068
:10491000A52EB12C02E010E080E0882E80E0982ED9
:1049200082E00E94D205892B21F41092C1021092DC
:10493000C0028091C0029091C1028230910509F4B9
:1049400085C108F008C1009709F42DC1019709F449
:104950005EC18114910421F30E941D0A8823D1F2C3
:104960000E940000D7CF8DE3D7CE61E08091B005E3
:104970000E94290661E08091B1050E94290680917C
:10498000B005082E000C990BFC01E153F54FE491A2
:10499000F0E0EE0FFF1FEB53F54F2591349130936C
:1049A000B8052093B705FC01ED51F54FE491E09374
:1049B000BD058091B105082E000C990BFC01E15357
:1049C000F54FE491F0E0EE0FFF1FEB53F54FA5918B
:1049D000B491B093BA05A093B905FC01ED51F54F20
:1049E000E491E093BE058C91E82BEC938091A505B2
:1049F0009091A605892B09F434C0CFB7F894809123
:104A0000B302811127C0E9EDFAE08491EDEEFAE0FE
:104A10009491E82FF0E0EE0FFF1FE856F54FA591B7
:104A2000B491EC91E92321F461E08AE00E94FB0556
:104A300061E08AE00E9429068CB580618CBD8CB54E
:104A400080648CBD61E08DE00E94290661E08BE00E
:104A50000E9429068091B3028F5F8093B302CFBF7B
:104A600073CE61E08091AE050E94290661E08091DD
:104A7000AF050E9429068091AE05082E000C990B07
:104A8000FC01E153F54FE491F0E0EE0FFF1FEB5313
:104A9000F54F259134913093B4052093B305FC0173
:104AA000ED51F54FE491E093BB058091AF05082EE1
:104AB000000C990BFC01E153F54FE491F0E0EE0F8F
:104AC000FF1FEB53F54FA591B491B093B605A0939A
:104AD000B505FC01ED51F54FE491E093BC058C91D7
:104AE000E095E823EC9330CE8091A5059091A60542
:104AF000892B31F08091C8059091C9050E9403115E
:104B0000E091B905F091BA0590818091BE0580953C
:104B1000892380835ACE8FEC91CE8036910569F43B
:104B20008091900590919105409739F48091AC0562
:104B3000813029F480E18093C705C2E082CE8FEAFC
:104B4000FACFE091B905F091BA0580819091BE0548
:104B5000892B8083BECE8330910509F4D9C0049798
:104B600009F0F7CE0E94B2062091BA023091BB0242
:104B70004091BC025091BD02621B730B840B950BDC
:104B8000693873418105910508F013C184E00E94E2
:104B9000D205019709F0DDCE85E090E00E948609FC
:104BA00060E070E8D4C00E941F1C0E94BE060E94F4
:104BB000E81B82E080939E0580939F05D0939D051E
:104BC000C0939C05D0939B05C0939A05D0929705FE
:104BD000C0929605F0929905E092980563E97AE013
:104BE0008AE895E00E94EA1C0E94061181E090E0AC
:104BF0000E94860982E00E94D205892B09F0D4C068
:104C000064E670E080E090E00E947F06F3CFB0920F
:104C10000101A09200011092BF021092BE020E94F8
:104C2000FE1C84E00E94D205019709F092CE82E03A
:104C300090E00E94860964EF71E080E090E00E94BD
:104C40007F061093C1020093C00283CE0E94FE1C17
:104C50000E945727A30192010E94AF27672B682B60
:104C6000692BA1F5B092C102A092C00283E090E04E
:104C70000E9486090E94E81B82E080939E05809333
:104C80009F05D0939D05C0939C05D0939B05C09331
:104C90009A058AE090E09093970580939605F092AC
:104CA0009905E092980569E87AE08AE895E00E9423
:104CB000EA1C0E9406110E94B2066093BA02709329
:104CC000BB028093BC029093BD0243CE3092C102DE
:104CD0002092C00284E090E00E9486090E94E81BB6
:104CE00082E080939E0580939F05D0939D05C0939D
:104CF0009C05D0939B05C0939A05D0929705C092CE
:104D00009605F0929905E092980562E87AE0CDCF99
:104D10000E94B2062091BA023091BB024091BC02BF
:104D20005091BD02621B730B840B950B6938734164
:104D30008105910518F587E00E94D205019709F0D9
:104D400008CE85E090E00E9486096FEF70E080E079
:104D50000E94A5078091BE029091BF020196909398
:104D6000BF028093BE021093C1020093C00264EFA1
:104D700071E080E090E00E947F06EBCD86E090E05D
:104D80000E94860960E070E08FEF0E94331C8091E2
:104D9000000190910101019790930101809300011E
:104DA000181619060CF44DCFD093C102C093C0025F
:104DB000D0CD86E090E00E94860960E870E080E84F
:104DC000E4CF8AE591E090936C0580936B05809128
:104DD000B1029091B2028B56954071F4E0917E053C
:104DE000F0917F0590818091800580958923808353
:104DF0001092B2021092B1028CE691E090938B0572
:104E000080938A058091A9059091AA05009711F0D9
:104E10000C94E32808958F929F92AF92BF92CF9205
:104E2000DF92EF92FF92CF93DF93EC01688179815B
:104E30008A819B81611571058105910521F464E2E8
:104E400079ED8BE597E02DE133EF41E050E00E94F2
:104E5000AF2749015A019B01AC01A7EAB1E40E94C6
:104E6000CE276B017C01ACEEB4EFA50194010E944A
:104E7000DC27C60ED71EE81EF91EF7FE06C081E02D
:104E8000C81AD108E10880E8F80AC882D982EA8203
:104E9000FB82C701B6019F77DF91CF91FF90EF9022
:104EA000DF90CF90BF90AF909F908F9008958F929A
:104EB0009F92AF92BF92CF92DF92EF92FF9260915A
:104EC0000201709103018091040190910501611527
:104ED00071058105910521F464E279ED8BE597E098
:104EE0002DE133EF41E050E00E94AF2749015A0124
:104EF0009B01AC01A7EAB1E40E94CE276B017C01C3
:104F0000ACEEB4EFA50194010E94DC27C60ED71EBB
:104F1000E81EF91EF7FE06C081E0C81AD108E108B4
:104F200080E8F80AC0920201D0920301E0920401E5
:104F3000F0920501C701B6019F77FF90EF90DF90D7
:104F4000CF90BF90AF909F908F9008956093020193
:104F50007093030180930401909305010895052E39
:104F600097FB1EF400940E94C62757FD07D00E94AD
:104F7000E12707FC03D04EF40C94C62750954095CA
:104F8000309521953F4F4F4F5F4F089590958095F5
:104F9000709561957F4F8F4F9F4F08950E94032812
:104FA000A59F900DB49F900DA49F800D911D11247D
:104FB0000895B7FF0C94CE270E94CE27821B930B37
:104FC0000895A1E21A2EAA1BBB1BFD010DC0AA1F4A
:104FD000BB1FEE1FFF1FA217B307E407F50720F062
:104FE000A21BB30BE40BF50B661F771F881F991FDD
:104FF0001A9469F760957095809590959B01AC0126
:10500000BD01CF010895A29FB001B39FC001A39F2E
:10501000700D811D1124911DB29F700D811D1124F1
:10502000911D089597FB072E16F4009407D077FD85
:1050300009D00E94332807FC05D03EF49095819555
:105040009F4F0895709561957F4F0895EE0FFF1F54
:105050000590F491E02D09940E940328B7FF08956C
:10506000821B930B0895AA1BBB1B51E107C0AA1F0B
:10507000BB1FA617B70710F0A61BB70B881F991FF9
:105080005A95A9F780959095BC01CD0108950F938D
:105090001F93CF93DF938230910510F482E090E06C
:1050A000E091CC05F091CD0530E020E0B0E0A0E04B
:1050B000309799F42115310509F44AC0281B390BA2
:1050C00024303105D8F58A819B816115710589F1FC
:1050D000FB0193838283FE0111C0408151810281D3
:1050E000138148175907E0F04817590799F41097AA
:1050F00061F012960C93129713961C933296CF017F
:10510000DF91CF911F910F9108950093CC051093DB
:10511000CD05F4CF2115310551F04217530738F072
:10512000A901DB019A01BD01DF01F801C1CFEF0147
:10513000F9CF9093CD058093CC05CDCFFE01E20F42
:10514000F31F819391932250310939832883D7CF5C
:105150002091CA053091CB05232B41F42091080101
:10516000309109013093CB052093CA0520910601A7
:10517000309107012115310541F42DB73EB740911B
:105180000A0150910B01241B350BE091CA05F091E7
:10519000CB05E217F307A0F42E1B3F0B28173907A6
:1051A00078F0AC014E5F5F4F2417350748F04E0F83
:1051B0005F1F5093CB054093CA05819391939FCF76
:1051C000F0E0E0E09CCFCF93DF930097E9F0FC01A3
:1051D000329713821282A091CC05B091CD05ED01DA
:1051E00030E020E01097A1F420813181820F931FDD
:1051F0002091CA053091CB052817390709F061C005
:10520000F093CB05E093CA05DF91CF910895EA01B1
:10521000CE17DF07E8F54A815B819E0141155105F4
:10522000B1F7E901FB83EA8349915991C40FD51F76
:10523000EC17FD0761F4808191810296840F951F20
:10524000E90199838883828193819B838A83F0E03B
:10525000E0E012968D919C9113970097B9F52D91EE
:105260003C911197CD010296820F931F2091CA05A0
:105270003091CB052817390739F6309751F5109240
:10528000CD051092CC05B093CB05A093CA05BCCF39
:10529000D383C28340815181840F951FC817D907DA
:1052A00061F44E5F5F4F88819981480F591F518388
:1052B00040838A819B81938382832115310509F084
:1052C000B0CFF093CD05E093CC059ECFFD01DC017E
:1052D000C0CF13821282D7CF81E090E0F8940C9473
:1052E0007829DC0101C06D9341505040E0F70895EA
:1052F00015E0CDE7D5E004C0FE010E9426282196E6
:10530000CE37D107C9F7F894FFCF030001000000A2
:105310000000CE0580007EFF06000100000000EFC7
:10532000000000004E1C4E1C4E1C4C1CE41B1B1BA2
:10533000E01BDD1BDA1B00000000861B201B1E1B70
:105340004C1CE41B1B1BE01BDD1B8C09C31800005D
:105350000000530AB309E009A00A110AEF09030A81
:1053600000000000D80AB3098318A805340B4A0BC3
:10537000C00A00000000C814B30983188218630D26
:10538000A8056D17451761175517D517A8058E1273
:105390003712D30C1C0D8E167116F9159A150D0ABD
:0253A00000000B
:107E0000112484B714BE81FFF0D085E080938100F7
:107E100082E08093C00088E18093C10086E0809377
:107E2000C20080E18093C4008EE0C9D0259A86E02C
:107E300020E33CEF91E0309385002093840096BBD3
:107E4000B09BFECF1D9AA8958150A9F7CC24DD24C4
:107E500088248394B5E0AB2EA1E19A2EF3E0BF2EE7
:107E6000A2D0813461F49FD0082FAFD0023811F036
:107E7000013811F484E001C083E08DD089C08234E0
:107E800011F484E103C0853419F485E0A6D080C0E4
:107E9000853579F488D0E82EFF2485D0082F10E0AE
:107EA000102F00270E291F29000F111F8ED06801E7
:107EB0006FC0863521F484E090D080E0DECF843638
:107EC00009F040C070D06FD0082F6DD080E0C81688
:107ED00080E7D80618F4F601B7BEE895C0E0D1E017
:107EE00062D089930C17E1F7F0E0CF16F0E7DF06D8
:107EF00018F0F601B7BEE89568D007B600FCFDCFD4
:107F0000A601A0E0B1E02C9130E011968C91119780
:107F100090E0982F8827822B932B1296FA010C0160
:107F200087BEE89511244E5F5F4FF1E0A038BF0790
:107F300051F7F601A7BEE89507B600FCFDCF97BE46
:107F4000E89526C08437B1F42ED02DD0F82E2BD052
:107F50003CD0F601EF2C8F010F5F1F4F84911BD097
:107F6000EA94F801C1F70894C11CD11CFA94CF0C13
:107F7000D11C0EC0853739F428D08EE10CD085E9AC
:107F80000AD08FE07ACF813511F488E018D01DD067
:107F900080E101D065CF982F8091C00085FFFCCF94
:107FA0009093C60008958091C00087FFFCCF809118
:107FB000C00084FD01C0A8958091C6000895E0E648
:107FC000F0E098E1908380830895EDDF803219F02E
:107FD00088E0F5DFFFCF84E1DECF1F93182FE3DFCA
:107FE0001150E9F7F2DF1F91089580E0E8DFEE27F6
:047FF000FF270994CA
:027FFE00040479
:00000001FF
